{
  "_format": "hh-sol-artifact-1",
  "contractName": "sendHelp",
  "sourceName": "contracts/sendHelp.sol",
  "abi": [
    {
      "inputs": [],
      "stateMutability": "nonpayable",
      "type": "constructor"
    },
    {
      "inputs": [],
      "name": "getContactBal",
      "outputs": [
        {
          "internalType": "uint256",
          "name": "",
          "type": "uint256"
        }
      ],
      "stateMutability": "view",
      "type": "function"
    },
    {
      "inputs": [],
      "name": "getMemo",
      "outputs": [
        {
          "components": [
            {
              "internalType": "string",
              "name": "name",
              "type": "string"
            },
            {
              "internalType": "string",
              "name": "message",
              "type": "string"
            },
            {
              "internalType": "address",
              "name": "from",
              "type": "address"
            },
            {
              "internalType": "uint256",
              "name": "timestamp",
              "type": "uint256"
            }
          ],
          "internalType": "struct sendHelp.Memo[]",
          "name": "",
          "type": "tuple[]"
        }
      ],
      "stateMutability": "view",
      "type": "function"
    },
    {
      "inputs": [
        {
          "internalType": "string",
          "name": "name",
          "type": "string"
        },
        {
          "internalType": "string",
          "name": "message",
          "type": "string"
        }
      ],
      "name": "sendHelpp",
      "outputs": [],
      "stateMutability": "payable",
      "type": "function"
    }
  ],
  "bytecode": "0x608060405234801561001057600080fd5b50336000806101000a81548173ffffffffffffffffffffffffffffffffffffffff021916908373ffffffffffffffffffffffffffffffffffffffff160217905550610c15806100606000396000f3fe6080604052600436106100345760003560e01c806368a6e8b9146100395780638aa7b4b114610064578063f7a736a81461008f575b600080fd5b34801561004557600080fd5b5061004e6100ab565b60405161005b919061047a565b60405180910390f35b34801561007057600080fd5b506100796100ef565b60405161008691906106a1565b60405180910390f35b6100a960048036038101906100a4919061080c565b6102d2565b005b60008060008054906101000a900473ffffffffffffffffffffffffffffffffffffffff1673ffffffffffffffffffffffffffffffffffffffff163190508091505090565b60606001805480602002602001604051908101604052809291908181526020016000905b828210156102c95783829060005260206000209060040201604051806080016040529081600082018054610146906108b3565b80601f0160208091040260200160405190810160405280929190818152602001828054610172906108b3565b80156101bf5780601f10610194576101008083540402835291602001916101bf565b820191906000526020600020905b8154815290600101906020018083116101a257829003601f168201915b505050505081526020016001820180546101d8906108b3565b80601f0160208091040260200160405190810160405280929190818152602001828054610204906108b3565b80156102515780601f1061022657610100808354040283529160200191610251565b820191906000526020600020905b81548152906001019060200180831161023457829003601f168201915b505050505081526020016002820160009054906101000a900473ffffffffffffffffffffffffffffffffffffffff1673ffffffffffffffffffffffffffffffffffffffff1673ffffffffffffffffffffffffffffffffffffffff16815260200160038201548152505081526020019060010190610113565b50505050905090565b60003411610315576040517f08c379a000000000000000000000000000000000000000000000000000000000815260040161030c90610941565b60405180910390fd5b60008054906101000a900473ffffffffffffffffffffffffffffffffffffffff1673ffffffffffffffffffffffffffffffffffffffff166108fc349081150290604051600060405180830381858888f1935050505015801561037b573d6000803e3d6000fd5b50600160405180608001604052808481526020018381526020013373ffffffffffffffffffffffffffffffffffffffff16815260200142815250908060018154018082558091505060019003906000526020600020906004020160009091909190915060008201518160000190816103f39190610b0d565b5060208201518160010190816104099190610b0d565b5060408201518160020160006101000a81548173ffffffffffffffffffffffffffffffffffffffff021916908373ffffffffffffffffffffffffffffffffffffffff1602179055506060820151816003015550505050565b6000819050919050565b61047481610461565b82525050565b600060208201905061048f600083018461046b565b92915050565b600081519050919050565b600082825260208201905092915050565b6000819050602082019050919050565b600081519050919050565b600082825260208201905092915050565b60005b838110156104fb5780820151818401526020810190506104e0565b60008484015250505050565b6000601f19601f8301169050919050565b6000610523826104c1565b61052d81856104cc565b935061053d8185602086016104dd565b61054681610507565b840191505092915050565b600073ffffffffffffffffffffffffffffffffffffffff82169050919050565b600061057c82610551565b9050919050565b61058c81610571565b82525050565b61059b81610461565b82525050565b600060808301600083015184820360008601526105be8282610518565b915050602083015184820360208601526105d88282610518565b91505060408301516105ed6040860182610583565b5060608301516106006060860182610592565b508091505092915050565b600061061783836105a1565b905092915050565b6000602082019050919050565b600061063782610495565b61064181856104a0565b935083602082028501610653856104b1565b8060005b8581101561068f5784840389528151610670858261060b565b945061067b8361061f565b925060208a01995050600181019050610657565b50829750879550505050505092915050565b600060208201905081810360008301526106bb818461062c565b905092915050565b6000604051905090565b600080fd5b600080fd5b600080fd5b600080fd5b7f4e487b7100000000000000000000000000000000000000000000000000000000600052604160045260246000fd5b61071982610507565b810181811067ffffffffffffffff82111715610738576107376106e1565b5b80604052505050565b600061074b6106c3565b90506107578282610710565b919050565b600067ffffffffffffffff821115610777576107766106e1565b5b61078082610507565b9050602081019050919050565b82818337600083830152505050565b60006107af6107aa8461075c565b610741565b9050828152602081018484840111156107cb576107ca6106dc565b5b6107d684828561078d565b509392505050565b600082601f8301126107f3576107f26106d7565b5b813561080384826020860161079c565b91505092915050565b60008060408385031215610823576108226106cd565b5b600083013567ffffffffffffffff811115610841576108406106d2565b5b61084d858286016107de565b925050602083013567ffffffffffffffff81111561086e5761086d6106d2565b5b61087a858286016107de565b9150509250929050565b7f4e487b7100000000000000000000000000000000000000000000000000000000600052602260045260246000fd5b600060028204905060018216806108cb57607f821691505b6020821081036108de576108dd610884565b5b50919050565b600082825260208201905092915050565b7f506c656173652073656e6420616d6f756e74206d6f7265207468616e20300000600082015250565b600061092b601e836108e4565b9150610936826108f5565b602082019050919050565b6000602082019050818103600083015261095a8161091e565b9050919050565b60008190508160005260206000209050919050565b60006020601f8301049050919050565b600082821b905092915050565b6000600883026109c37fffffffffffffffffffffffffffffffffffffffffffffffffffffffffffffffff82610986565b6109cd8683610986565b95508019841693508086168417925050509392505050565b6000819050919050565b6000610a0a610a05610a0084610461565b6109e5565b610461565b9050919050565b6000819050919050565b610a24836109ef565b610a38610a3082610a11565b848454610993565b825550505050565b600090565b610a4d610a40565b610a58818484610a1b565b505050565b5b81811015610a7c57610a71600082610a45565b600181019050610a5e565b5050565b601f821115610ac157610a9281610961565b610a9b84610976565b81016020851015610aaa578190505b610abe610ab685610976565b830182610a5d565b50505b505050565b600082821c905092915050565b6000610ae460001984600802610ac6565b1980831691505092915050565b6000610afd8383610ad3565b9150826002028217905092915050565b610b16826104c1565b67ffffffffffffffff811115610b2f57610b2e6106e1565b5b610b3982546108b3565b610b44828285610a80565b600060209050601f831160018114610b775760008415610b65578287015190505b610b6f8582610af1565b865550610bd7565b601f198416610b8586610961565b60005b82811015610bad57848901518255600182019150602085019450602081019050610b88565b86831015610bca5784890151610bc6601f891682610ad3565b8355505b6001600288020188555050505b50505050505056fea26469706673582212208c327d91c98807a601126352958d4c65a3dcb4891aa3292f973c9130528eed5e64736f6c63430008130033",
  "linkReferences": {},
  "deployedLinkReferences": {}
}